:020000040800F2
:1000000000000220756A0008F9630008FD6300081B
:10001000016400080564000809640008000000008D
:100020000000000000000000000000000D64000857
:10003000116400080000000015640008196400083D
:10004000C56A0008C56A0008C56A0008C56A0008D4
:10005000C56A0008C56A0008C56A0008C56A0008C4
:10006000C56A0008C56A0008C56A0008C56A0008B4
:10007000C56A0008C56A00082964000835640008DC
:10008000C56A0008C56A0008416400085D6400088C
:10009000696400086D640008C56A0008C56A000844
:1000A000C56A0008C56A0008C56A0008C56A000874
:1000B000716400087D640008C56A0008C56A00080C
:1000C000C56A0008C56A0008C56A00088964000896
:1000D00095640008A1640008AD640008C56A0008C2
:1000E000C56A0008C56A0008C56A0008C56A000834
:1000F000B9640008C56A0008C56A0008C56A000836
:10010000C56A0008C56A0008C56A0008C56A000813
:10011000C56A0008C56A0008C5640008C56A000809
:10012000D1640008DD640008C56A0008E9640008BD
:10013000F56400080000000000000000C56A000827
:10014000C56A0008C56A0008C56A0008C56A0008D3
:10015000C56A0008C56A0008C56A0008C56A0008C3
:10016000C56A0008C56A0008C56A0008C56A0008B3
:10017000C56A0008C56A0008C56A000800000000DA
:1001800000000000C56A0008000000000000000038
:10019000C56A00080000000000000000C56A0008F1
:1001A000000000000000000000000000C56A000818
:1001B000C56A0008C56A0008C56A0008C56A000863
:0401C000C56A000804
:1001D00010B5054C237833B9044B13B10448AFF381
:1001E00000800123237010BD9C000020000000004F
:1001F0004485000808B5034B1BB103490348AFF31E
:10020000008008BD00000000A00000204485000818
:1002100081F0004102E000BF83F0004330B54FEAB7
:1002200041044FEA430594EA050F08BF90EA020F24
:100230001FBF54EA000C55EA020C7FEA645C7FEAB7
:10024000655C00F0E2804FEA5454D4EB5555B8BFDA
:100250006D420CDD2C4480EA020281EA030382EA4B
:10026000000083EA010180EA020281EA0303362DDD
:1002700088BF30BD11F0004F4FEA01314FF4801CB0
:100280004CEA113102D0404261EB410113F0004FC2
:100290004FEA03334CEA133302D0524263EB430379
:1002A00094EA050F00F0A780A4F10104D5F1200E17
:1002B0000DDB02FA0EFC22FA05F2801841F1000172
:1002C00003FA0EF2801843FA05F359410EE0A5F146
:1002D00020050EF1200E012A03FA0EFC28BF4CF077
:1002E000020C43FA05F3C01851EBE37101F000452D
:1002F00007D54FF0000EDCF1000C7EEB00006EEB3A
:100300000101B1F5801F1BD3B1F5001F0CD34908C3
:100310005FEA30004FEA3C0C04F101044FEA44521A
:1003200012F5800F80F09A80BCF1004F08BF5FEAA1
:10033000500C50F1000041EB045141EA050130BD81
:100340005FEA4C0C404141EB010111F4801FA4F124
:100350000104E9D191F0000F04BF01460020B1FA79
:1003600081F308BF2033A3F10B03B3F120020CDAB1
:100370000C3208DD02F1140CC2F10C0201FA0CF08F
:1003800021FA02F10CE002F11402D8BFC2F1200CF4
:1003900001FA02F120FA0CFCDCBF41EA0C019040AA
:1003A000E41AA2BF01EB0451294330BD6FEA0404F3
:1003B0001F3C1CDA0C340EDC04F11404C4F12002DE
:1003C00020FA04F001FA02F340EA030021FA04F3F0
:1003D00045EA030130BDC4F10C04C4F1200220FA47
:1003E00002F001FA04F340EA0300294630BD21FA85
:1003F00004F0294630BD94F0000F83F4801306BF4B
:1004000081F480110134013D4EE77FEA645C18BF3E
:100410007FEA655C29D094EA050F08BF90EA020FD5
:1004200005D054EA000C04BF1946104630BD91EACD
:10043000030F1EBF0021002030BD5FEA545C05D1D0
:100440004000494128BF41F0004130BD14F580040F
:100450003CBF01F5801130BD01F0004545F0FE4183
:1004600041F470014FF0000030BD7FEA645C1ABFB8
:10047000194610467FEA655C1CBF0B46024650EAEF
:10048000013406BF52EA033591EA030F41F400211B
:1004900030BD00BF90F0000F04BF0021704730B5A1
:1004A0004FF4806404F132044FF000054FF0000176
:1004B00050E700BF90F0000F04BF0021704730B537
:1004C0004FF4806404F1320410F0004548BF40420C
:1004D0004FF000013EE700BF42004FEAE2014FEA61
:1004E00031014FEA02701FBF12F07F4393F07F4F3C
:1004F00081F06051704732F07F4208BF704793F03F
:100500007F4F04BF41F40021704730B54FF4607451
:1005100001F0004521F000411CE700BF50EA010254
:1005200008BF704730B54FF000050AE050EA0102FD
:1005300008BF704730B511F0004502D5404261EB6D
:1005400041014FF4806404F132045FEA915C3FF4AE
:10055000D8AE4FF003025FEADC0C18BF03325FEA4B
:10056000DC0C18BF033202EBDC02C2F1200300FAFC
:1005700003FC20FA02F001FA03FE40EA0E0021FA21
:1005800002F11444BDE600BF70B54FF0FF0C4CF40F
:10059000E06C1CEA11541DBF1CEA135594EA0C0FC1
:1005A00095EA0C0F00F0DEF82C4481EA030621EAFC
:1005B0004C5123EA4C5350EA013518BF52EA033537
:1005C00041F4801143F4801338D0A0FB02CE4FF0E9
:1005D0000005E1FB02E506F00042E0FB03E54FF019
:1005E0000006E1FB03569CF0000F18BF4EF0010E11
:1005F000A4F1FF04B6F5007F64F5407404D25FEA0D
:100600004E0E6D4146EB060642EAC62141EA5551BF
:100610004FEAC52040EA5E504FEACE2EB4F1FD0C01
:1006200088BFBCF5E06F1ED8BEF1004F08BF5FEA7F
:10063000500E50F1000041EB045170BD06F0004631
:1006400046EA010140EA020081EA0301B4EB5C04DE
:10065000C2BFD4EB0C0541EA045170BD41F48011D6
:100660004FF0000E013C00F3AB8014F1360FDEBFFB
:10067000002001F0004170BDC4F10004203C35DAD7
:100680000C341BDC04F11404C4F1200500FA05F35A
:1006900020FA04F001FA05F240EA020001F00042FB
:1006A00021F0004110EBD37021FA04F642EB060171
:1006B0005EEA430E08BF20EAD37070BDC4F10C049B
:1006C000C4F1200500FA04F320FA05F001FA04F25F
:1006D00040EA020001F0004110EBD37041F100014B
:1006E0005EEA430E08BF20EAD37070BDC4F1200556
:1006F00000FA05F24EEA020E20FA04F301FA05F2BE
:1007000043EA020321FA04F001F0004121FA04F265
:1007100020EA020000EBD3705EEA430E08BF20EA35
:10072000D37070BD94F0000F0FD101F0004640006F
:1007300041EB010111F4801F08BF013CF7D041EAF1
:10074000060195F0000F18BF704703F000465200F5
:1007500043EB030313F4801F08BF013DF7D043EAC6
:100760000603704794EA0C0F0CEA135518BF95EA7C
:100770000C0F0CD050EA410618BF52EA4306D1D103
:1007800081EA030101F000414FF0000070BD50EA22
:10079000410606BF1046194652EA430619D094EAAC
:1007A0000C0F02D150EA013613D195EA0C0F05D196
:1007B00052EA03361CBF104619460AD181EA0301EA
:1007C00001F0004141F0FE4141F470014FF00000A2
:1007D00070BD41F0FE4141F4780170BD70B54FF03D
:1007E000FF0C4CF4E06C1CEA11541DBF1CEA1355BD
:1007F00094EA0C0F95EA0C0F00F0A7F8A4EB05049F
:1008000081EA030E52EA03354FEA013100F0888095
:100810004FEA03334FF0805545EA131343EA12635E
:100820004FEA022245EA111545EA10654FEA002613
:100830000EF000419D4208BF964244F1FD0404F5CC
:10084000407402D25B084FEA3202B61A65EB030528
:100850005B084FEA32024FF480104FF4002CB6EBE5
:10086000020E75EB030E22BFB61A754640EA0C0065
:100870005B084FEA3202B6EB020E75EB030E22BFA5
:10088000B61A754640EA5C005B084FEA3202B6EBE6
:10089000020E75EB030E22BFB61A754640EA9C00A5
:1008A0005B084FEA3202B6EB020E75EB030E22BF75
:1008B000B61A754640EADC0055EA060E18D04FEA33
:1008C000051545EA16754FEA06164FEAC30343EAD3
:1008D00052734FEAC2025FEA1C1CC0D111F4801FA0
:1008E0000BD141EA00014FF000004FF0004CB6E799
:1008F00011F4801F04BF01430020B4F1FD0C88BF38
:10090000BCF5E06F3FF6AFAEB5EB030C04BFB6EB42
:10091000020C5FEA500C50F1000041EB045170BD35
:100920000EF0004E4EEA113114EB5C04C2BFD4EB62
:100930000C0541EA045170BD41F480114FF0000EE6
:10094000013C90E645EA060E8DE60CEA135594EA62
:100950000C0F08BF95EA0C0F3FF43BAF94EA0C0F65
:100960000AD150EA01347FF434AF95EA0C0F7FF4DA
:1009700025AF104619462CE795EA0C0F06D152EA2E
:1009800003353FF4FDAE1046194622E750EA410612
:1009900018BF52EA43067FF4C5AE50EA41047FF423
:1009A0000DAF52EA43057FF4EBAE12E74FF0FF3C88
:1009B00006E000BF4FF0010C02E000BF4FF0010C59
:1009C0004DF804CD4FEA410C7FEA6C5C4FEA430CD2
:1009D00018BF7FEA6C5C1BD001B050EA410C0CBF21
:1009E00052EA430C91EA030F02BF90EA020F002083
:1009F000704710F1000F91EA030F58BF994208BFEA
:100A000090422CBFD8176FEAE37040F001007047A6
:100A10004FEA410C7FEA6C5C02D150EA013C07D1FD
:100A20004FEA430C7FEA6C5CD6D152EA033CD3D048
:100A30005DF8040B704700BF8446104662468C4642
:100A40001946634600E000BF01B5FFF7B7FF002875
:100A500048BF10F1000F01BD4DF808EDFFF7F4FF9E
:100A60000CBF012000205DF808FB00BF4DF808ED29
:100A7000FFF7EAFF34BF012000205DF808FB00BF4C
:100A80004DF808EDFFF7E0FF94BF012000205DF86E
:100A900008FB00BF4DF808EDFFF7CEFF94BF012023
:100AA00000205DF808FB00BF4DF808EDFFF7C4FF1C
:100AB00034BF012000205DF808FB00BF4FEA410C65
:100AC0007FEA6C5C02D150EA013C0AD14FEA430C48
:100AD0007FEA6C5C02D152EA033C02D14FF0000085
:100AE00070474FF0010070474FEA410212F50012C3
:100AF00015D211D56FF47873B3EB625212D94FEA65
:100B0000C12343F0004343EA505311F0004F23FA4E
:100B100002F018BF404270474FF00000704750EAA3
:100B2000013005D111F0004008BF6FF00040704760
:100B30004FF00000704700BF4A0011D212F50012BA
:100B400011D20DD56FF47873B3EB62520ED44FEA25
:100B5000C12343F0004343EA505323FA02F07047A5
:100B60004FF00000704750EA013002D14FF0FF30E3
:100B700070474FF0000070474FEA4102B2F1E04386
:100B800024BFB3F5001CDCF1FE5C0DD901F0004C74
:100B90004FEAC0024CEA5070B2F1004F40EB8300C4
:100BA00008BF20F00100704711F0804F21D113F1F0
:100BB0003872BCBF01F00040704741F480114FEA29
:100BC0005252C2F11802C2F1200C10FA0CF320FAB2
:100BD00002F018BF40F001004FEAC1234FEAD323CF
:100BE00003FA0CFC40EA0C0023FA02F34FEA430339
:100BF000CCE77FEA625307D150EA01331EBF4FF0C2
:100C0000FE4040F44000704701F0004040F0FE40DC
:100C100040F40000704700BF53B94AB9002908BF2B
:100C200000281CBF4FF0FF314FF0FF3000F072B9C9
:100C3000ADF1080C6DE904CE00F006F8DDF804E033
:100C4000DDE9022304B070472DE9F047089E044611
:100C50008846002B4BD18A42154667D9B2FA82F2F8
:100C60004AB1C2F1200701FA02F320FA07F79540D2
:100C700047EA030894404FEA154E230CB8FBFEF7F1
:100C80001FFA85FC0EFB178843EA084307FB0CF1AB
:100C9000994209D9EB1807F1FF3080F01B81994286
:100CA00040F21881023F2B445B1AA4B2B3FBFEF062
:100CB0000EFB103344EA034400FB0CFCA44509D9A5
:100CC0002C1900F1FF3380F00781A44540F2048124
:100CD00002382C4440EA0740A4EB0C0400271EB164
:100CE000D4400023C6E900433946BDE8F0878B4273
:100CF00009D9002E00F0EB800027C6E90001384634
:100D00003946BDE8F087B3FA83F7002F47D18B420D
:100D100002D3824200F2FA80841A61EB03030120BD
:100D20009846002EE0D0C6E90048DDE702B9FFDEB4
:100D3000B2FA82F2002A40F08F80491B4FEA154E2A
:100D40001FFA85F80127B1FBFEFC230C0EFB1C11DA
:100D500043EA014308FB0CF1994207D9EB180CF167
:100D6000FF3002D2994200F2CD808446591AA3B2D4
:100D7000B1FBFEF00EFB101443EA044408FB00F83C
:100D8000A04507D92C1900F1FF3302D2A04500F28B
:100D9000B6801846A4EB080440EA0C409FE7C7F170
:100DA000200CBB4022FA0CFE4EEA030E01FA07F4B7
:100DB00020FA0CF521FA0CF34FEA1E482543B3FB49
:100DC000F8F92C0C08FB19331FFA8EFA44EA034396
:100DD00009FB0AF49C4202FA07F200FA07F10BD968
:100DE0001EEB030309F1FF3080F087809C4240F244
:100DF0008480A9F1020973441B1BADB2B3FBF8F068
:100E000008FB103345EA034400FB0AFAA24508D95F
:100E10001EEB040400F1FF336BD2A24569D90238FE
:100E2000744440EA0940A0FB0289A4EB0A044C4543
:100E3000C2464B4654D351D0002E69D0B1EB0A05BF
:100E400064EB030404FA0CFCFD40FC404CEA05058D
:100E5000C6E90054002747E7C2F1200320FA03F750
:100E6000954001FA02F021FA03F34FEA154E384398
:100E7000010CB3FBFEF71FFA85F80EFB173341EAAE
:100E8000034107FB08F38B4204FA02F407D96918FF
:100E900007F1FF3C2FD28B422DD9023F2944CB1AB8
:100EA00081B2B3FBFEF00EFB103341EA034100FBBD
:100EB00008F38B4207D9691800F1FF3C17D28B4227
:100EC00015D902382944C91A40EA07473BE7374693
:100ED000304609E70746E7E61846FBE64145ABD250
:100EE000B8EB020A69EB0E0201381346A4E760462C
:100EF000E9E7184695E76746D1E781467CE702387F
:100F00002C4447E7ACF1020C2B442FE7384608E7A6
:100F10003746E9E6704700BF00000000000000000F
:100F200001F0FF01102A2BDB10F0070F08D010F89A
:100F3000013B013A8B422DD010F0070F42B3F6D19E
:100F4000F0B441EA012141EA014122F007047FF0B7
:100F500000070023F0E80256083C85EA010586EA0E
:100F6000010685FA47F5A3FA87F586FA47F6A5FA4A
:100F700087F68EB9EED1F0BC01F0FF0102F0070256
:100F800032B110F8013B013A83EA010313B1F8D101
:100F90000020704701387047002D06BF35460338E2
:100FA000073815F0010F07D1013015F4807F02BF1B
:100FB000013015F4C03F0130F0BC0138704700BF6C
:100FC00070B50E4B0E4D1B682A7806464FF47A70AA
:100FD000B0FBF2F0B3FBF0F000F036FF08B90F2ED3
:100FE00001D9012070BD0446024631464FF0FF3062
:100FF00000F0E8FE6E60204670BD00BF30000020AB
:101000000000002008B50B4B1A6842F400721A6009
:101010001A6842F480621A601A6842F480721A6098
:10102000032000F0BDFE0020FFF7CAFF05F0B4F971
:10103000002008BD003C0240034A044B11681B78A5
:101040000B441360704700BF200100200000002007
:10105000014B1868704700BF2001002038B50446D6
:10106000FFF7F6FF631C054602D0044B1B781C44B7
:10107000FFF7EEFF401BA042FAD338BD000000206E
:10108000002800F08E80F8B5036C0446002B7ED05B
:10109000236CDB0604D50023012084F83C30F8BD26
:1010A000226C4C4923684C4D22F4885222F00202F3
:1010B00042F0020222644A6822F440324A604A68DE
:1010C000606802434A6058682169A768E66820F4AE
:1010D000807058605A6842EA01225A60586820F0CD
:1010E000407058605968A06A39435960996821F482
:1010F000006199609A68A84242EA06029A6052D05A
:101100009968E56A21F0706199609A681043986067
:10111000996821F0405199609A682A439A609968C9
:10112000A569206A21F0020199609A6842EA4502A5
:101130009A605A6800283FD122F400625A60DA6A45
:10114000E569276B666922F47002DA62D86A013DAC
:1011500040EA0550D862986820F400709860996859
:1011600041EA47219960996821F4806199609A6801
:10117000002042EA86229A606064236C23F0030315
:1011800043F001032364002384F83C30F8BD43643A
:1011900080F83C3004F0A0FC236CDB063FF57BAF0D
:1011A0007EE7012070479A6822F070629A609A6820
:1011B00022F040529A60B2E742F40062616A5A60DB
:1011C0005A6822F460425A605A68013942EA413250
:1011D0005A60B4E7002301400100000F10B490F8FA
:1011E0003C3083B00022012B01925BD002689368EF
:1011F0000121DB0780F83C1014D42D4B2D4C1B68CB
:101200009168A4FB03439B0C03EB430341F00101F2
:1012100091600193019B2BB1019B013B0193019BC9
:10122000002BF9D19368DC072BD5036C23F4E06322
:1012300023F0010343F4807303645368590505D513
:10124000036C23F4405343F480530364036C13F49E
:1012500080531CBF436C23F00603436400216FF0EE
:10126000220380F83C1013605368134943F08063F5
:1012700043F0200353604B68DB0607D00F4B9A42C4
:1012800004D0002003B05DF8044B7047906810F064
:101290004050F6D1936843F08043936003B05DF80B
:1012A000044B7047022003B05DF8044B704700BF49
:1012B0003000002083DE1B4300230140002001405A
:1012C000F0B590F83C3083B00024012B019469D034
:1012D0000568AB680124DE0780F83C4014D4334B2A
:1012E000334E1C68AB68A6FB0464A40C43F00103F6
:1012F00004EB4404AB600194019B2BB1019C013CC5
:101300000194019C002CF9D1AB68DC073DD5046C3D
:1013100024F4E06424F0010444F4807404646B68F1
:101320005B0505D5036C23F4405343F480530364F9
:10133000036C204E13F480531CBF436C23F0060350
:1013400043640446806B134600271B4A84F83C70B4
:10135000C6630264194EC6646FF022022A606E688A
:1013600046F080666E60AE6846F480760A46AE60EF
:1013700005F14C0100F060FE114B5B6813F01F0F8C
:10138000236805D00F4A934202D0002003B0F0BD7D
:10139000986810F04050F8D19A6842F080429A6004
:1013A00003B0F0BD022003B0F0BD00BF300000204C
:1013B00083DE1B43CD1300082D1400086D150008B3
:1013C0000023014000200140704700BF836B1A6C6E
:1013D00012F0500F02D09B6BDB6C18471A6C196827
:1013E00042F4007210B51A648A6812F0405F17D197
:1013F0009A69AAB9CA6A12F4700F02D08A685005B5
:101400000ED44A6822F020024A601A6C22F48072DC
:101410001A641A6CD20403D41A6C42F001021A64E2
:101420001846FFF7D1FF10BD704700BF08B5806BAD
:10143000FFF7FAFF08BD00BF704700BF704700BF4D
:1014400038B503681A6859680446900701D58A06BA
:1014500053D41A685968520701D50D061BD41A686F
:101460005968D00701D54A0606D41A68596890060B
:1014700001D54A0169D438BD1A68D507F5D5236C62
:1014800043F4803323642046FFF7D6FF23686FF0D0
:1014900001021A60E9E7226CD00603D4226C42F400
:1014A000005222649A6812F4401F1ED19A6B12F403
:1014B000401F02D09A68510517D45A68520514D4B7
:1014C0009A6812F0405F10D1A26972B95A6822F08E
:1014D00080025A60236C23F480532364236CDD055F
:1014E00003D4236C43F001032364204600F0F6F894
:1014F00023686FF00C021A60B1E7226CD50603D4A2
:10150000226C42F4007222649A6812F0405F14D197
:10151000A26992B9DA6A12F4700F23D15A6822F0E4
:1015200020025A60236C23F480732364236CD90453
:1015300003D4236C43F0010323642046FFF744FFE8
:1015400023686FF012021A6083E7626C6FF0200567
:1015500042F00202626420461D60FFF76FFF2368BD
:101560001D6038BD9A685005E7D4D7E7806B08B591
:1015700040230364436C43F004034364FFF75EFFBE
:1015800008BD00BFF0B490F83C3082B00022012BBF
:10159000019200F08D800D688A6803680124092D8E
:1015A000AFB280F83C4029D81C6905EB45064FF0E6
:1015B000070C0CFA06FC24EA0C041C611C6902FAF4
:1015C00006F626431E614E68062E06EB86022AD8D2
:1015D000596B053A1F24944021EA04015963596B61
:1015E00007FA02F20A435A63374A93422DD0002386
:1015F00080F83C30184602B0F0BC704707EB470655
:10160000DC681E3E4FF0070C0CFA06FC24EA0C04C2
:10161000DC60DC6802FA06F62643DE604E68062EC1
:1016200006EB8602D4D90C2E2DD8A2F123041F215B
:101630001A6BA14022EA01021A63196B07FA04F23D
:101640000A431A63204A9342D1D1122D29D01F4B4D
:101650009D4231D11E491F4B4A681F4C42F4000283
:101660004A601B68A4FB03239B0C03EB83035B0012
:101670000193019B002BBAD0019B013B0193019B7D
:10168000002BF9D1B3E7A2F141011F24DA6A8C40A3
:1016900022EA0402DA62DC6A07FA01F22243DA6221
:1016A000A2E7D2F8043343F48003C2F804339EE780
:1016B000022002B0F0BC7047112D98D1044A536843
:1016C00043F40003536092E7002001401200001031
:1016D000002301403000002083DE1B43704700BF21
:1016E00000287CD038B590F820300446002B73D009
:1016F0002268136823F002031360FFF7A9FC054674
:1017000004E0FFF7A5FC401B0A285CD823685A6850
:101710009107F6D41A6842F001021A60FFF798FCAC
:10172000054604E0FFF794FC401B0A284BD82368C9
:101730005A68D207F6D5227E012A1A680CBF42F0F9
:10174000800222F080021A60627E012A1A680CBFB1
:1017500042F0400222F040021A60A27E012A1A687A
:101760000CBF42F0200222F020021A60E27E012A21
:101770001A680CBF22F0100242F010021A60227F99
:10178000012A1A680CBF42F0080222F008021A600F
:10179000627F012A1A680CBF42F0040222F00402A0
:1017A0001A60D4E90221D4E904500A4361682A434B
:1017B000024301390A4301250021DA6108466162CA
:1017C00084F8205038BD636A052243F40033636215
:1017D000012084F8202038BD04F036FA88E7012083
:1017E000704700BF90F82030012B09D090F82030CE
:1017F000022B05D0436A43F48023436201207047E3
:101800003B4BD3F8002242F00102F0B4C3F80022AF
:10181000D3F8002222F47C52C3F80022D3F800222D
:10182000486A42EA0022C3F800224A69D3F81C52EF
:1018300001209040C4432540C3F81C52CD69002DBF
:1018400039D1D3F80C522540C3F80C52D200CF68DE
:101850008D888E680B8802F1804202F5C84245EA05
:10186000074543EA0643C2F84052C2F844328B6946
:101870001F4A002B35D1D2F804322340C2F804327B
:101880000B693BBB1A4BD3F814221440C3F8144223
:101890000B6A012B05D1164AD2F81C321843C2F844
:1018A0001C02134AD2F8003223F001030020C2F8D0
:1018B0000032F0BC7047012DD9D1D3F80C5205434A
:1018C000C3F80C52D20002F180420F688D888E68F6
:1018D0008B89C2E7064AD2F814320343C2F81432A5
:1018E000D6E7D2F804320343C2F80432C8E700BF97
:1018F0000064004038B590F82030012B05D0436AD1
:1019000043F400234362012038BD0268022380F8BB
:101910002030136823F0010313600446FFF798FB9F
:10192000054604E0FFF794FB401B0A2807D823680C
:101930005B6813F00103F5D16362184638BD636A32
:10194000052243F400336362012084F8202038BD6F
:1019500070B490F82040012C0AD090F82040022C5E
:1019600006D0436A43F480234362012070BC704771
:101970000468A5686D012DD5A0680125C0F301603C
:1019800085401D608B688BBB0E68CD6800F1180325
:101990001B0145EA4655E5500D7D096900012318F4
:1019A000012DC3F8841105D1D3F8841141F480715D
:1019B000C3F8841104445168C4F88C111268C4F847
:1019C0008821D3F8802142F001020020C3F8802151
:1019D00070BC7047A5682E01CED4A568ED00CBD4AD
:1019E000436A43F4001343620120BFE7CD684E68A9
:1019F0002B4300F118052D0143EAC6036351CBE7E1
:101A00002DE9F041044690F8200001280AD094F80E
:101A10002000022806D0636A43F480236362012019
:101A2000BDE8F0812668002956D1F068850763D0AB
:101A300008013518D5F8B07107F004079760002F3A
:101A400055D0D5F8B071FF085760D5F8B0E1D5F89A
:101A5000B4C1D5F8B471D5F8B4510644CEF3400EF4
:101A6000D6F8B881C7F307270CF00F062D0CC2E992
:101A700003E6C2E9055783F8008022680244D2F8E1
:101A8000B821120A5A7022680244D2F8B821120C06
:101A90009A7022680244D2F8B821120EDA702268D5
:101AA0000244D2F8BC211A7122680244D2F8BC2147
:101AB000120A5A7122680244D2F8BC21120C9A719F
:101AC00022681044D0F8BC21120EDA71D9B1012974
:101AD00021D00020BDE8F0810129A9D1306980071B
:101AE000A6D1636A43F400130846636298E7D5F809
:101AF000B0717F0D1760A8E7636A43F40013636257
:101B00000120BDE8F0812268D36843F02003084635
:101B1000D360BDE8F0812268136943F020031361AC
:101B200000207DE790F82030012B09D090F820307C
:101B3000022B05D0436A43F480234362012070479F
:101B4000026853691943516100207047704700BF14
:101B5000704700BF704700BF704700BF704700BFAD
:101B6000704700BF704700BF704700BF704700BF9D
:101B7000704700BF704700BF2DE9F84F03685C69EC
:101B8000D3F804809F68D3F80CB0D3F81090D3F842
:101B900018A014F00106054620D017F001060DD05C
:101BA0000122B9079A6000F1C7807A0700F1C88066
:101BB00017F0080600F0DE804FF48056FB050BD5C9
:101BC0002B684FF48072B8059A6000F1B1807905F6
:101BD00040F1BE8046F40056FB0376D4230702D5BD
:101BE0001BF0100F6BD1670703D51BF0080F40F0F7
:101BF0009480A00703D52B68DB68990777D162062C
:101C000002D519F0100F54D1A30602D519F0080F10
:101C100066D1E70603D52B681B6998076BD1A10332
:101C200002D518F0100F6AD1E20302D518F0080FA0
:101C30006CD1230434D518F0040F2B682ED0E7059F
:101C400004D51AF0010F18BF46F00106A00504D50F
:101C50001AF0020F18BF46F00206610504D51AF00B
:101C6000040F18BF46F00406220517D51AF0700AB3
:101C700014D0BAF1300F00F087806ED9BAF1500F4E
:101C80007FD0BAF1600F00F08280BAF1400F01D12D
:101C900046F040069A6922F070029A6104225A6066
:101CA0002EB16B6A1E436E62284603F095FCBDE8B8
:101CB000F88F2B68102246F480661A61A4E72B681F
:101CC000102246F40076DA608DE72B684FF48032FC
:101CD000B8039A6028D4790335D546F400467DE7E9
:101CE0002B6808221A612846FFF740FF91E7284633
:101CF00003F084FC83E72846FFF736FF8FE72B6865
:101D000010225A602846FFF733FF8DE72B68082220
:101D10005A602846FFF72EFF8BE72B680822DA600F
:101D20002846FFF71FFF64E72846FFF713FF55E734
:101D30002846FFF70DFF4FE7FFF708FF00263DE7B6
:101D40004FF400663AE73A0310D546F4803645E78B
:101D50003A0512D546F480463EE7BAF1100F19D085
:101D6000BAF1200F96D146F0100693E72846FFF708
:101D7000F7FE33E7FFF7F0FE20E72846FFF7EEFE19
:101D80002AE746F0800685E746F0200682E746F41B
:101D900080767FE746F008067CE700BF406A704720
:101DA000074AD3684FF6FF010B40000243F0BF63C0
:101DB00000F4E06043F400330343D360704700BF96
:101DC00000ED00E0184BDB68C3F3022330B4C3F12D
:101DD0000705042D03F1040428BF0425062C19D996
:101DE000033B4FF0FF349C4022EA04044FF0FF32E3
:101DF000AA4021EA020101FA03F22243120100285B
:101E0000D2B20ADB00F1604000F5614080F80023A7
:101E100030BC704700242346E8E7044B00F00F0075
:101E200003441A7630BC704700ED00E0FCEC00E0A3
:101E300000F01F0101234009024A8B4042F8203084
:101E4000704700BF00E100E00138B0F1807F0ED2A2
:101E5000084B10B4084C5860F02084F8230000228E
:101E6000072110469A6019605DF8044B7047012005
:101E7000704700BF10E000E000ED00E0044A136886
:101E800004280CBF43F0040323F0040313607047DD
:101E900010E000E008B503F04FFC08BD78B14379CD
:101EA00010B503F0FF0204462BB102220123627138
:101EB0000020637110BD027103F01AFFF5E70120E5
:101EC000704700BF0379012B19D030B40223046896
:101ED0004371A36801252B430571A3603AB104390E
:101EE00001EB820251F8043F23609142FAD10123B1
:101EF000437123680022027130BC184670470223E8
:101F000018467047F8B50446FFF7A2F8002C54D0E5
:101F10000222236884F835201A68002122F0010289
:101F200084F8341005461A6005E0FFF791F8401B6D
:101F300005283BD823681A68D107F6D4D4E90126CE
:101F4000D4E90351324360691F682A43D4E9066526
:101F50000A430243216A354832432A430A43616AED
:101F60003840042942EA000229D01A605A6922F056
:101F700007021143DAB22E485961103AA0FB02124F
:101F800012092C4923F47F73895CE16523F0030374
:101F9000032A88BF04333F228A4001250021A3651C
:101FA00008469A60616584F83550F8BD0323202205
:101FB0006265184684F83530F8BD0120F8BDD4E9D3
:101FC0000B0101430A43A56A1A605A6945F00401EE
:101FD00022F0070211430028CCD07EB1B6F5005F95
:101FE00016D0022D03D9032DC4D1C201C2D50123BD
:101FF00040226265184684F83530F8BD012D03D0C3
:10200000F3D3022DB6D1F0E7B0F1C07FB2D1EEE745
:10201000032DAFD801A252F825F000BFEF1F000832
:10202000EB1F0008EF1F0008092000083F8010F098
:10203000ABAAAAAA60850008F0B490F83440012C3D
:1020400039D090F83540866D0125AC4280F8345087
:102050002BD104680227002580F835704565256876
:10206000876825F48025402F256063600ABFA26041
:10207000A160E160C16D18BFE2603F238B40026C3C
:10208000B360236843F016032360636943F0800361
:1020900063611AB1236843F008032360236843F0A7
:1020A000010323600020F0BC7047002380F8343027
:1020B000F0BC022070470220F0BC704790F8353029
:1020C000022B03D08023436501207047026805235B
:1020D00080F83530136823F0010313600020704747
:1020E000F0B583B00023876D0193C36D3D686549EA
:1020F00008229A402A4204460E6803D00168086804
:10210000400759D401229A402A4203D021684969E4
:10211000080674D404229A402A4203D02168096830
:10212000890766D410229A402A4203D021680868A1
:1021300000074BD420229A402A4214D02168086814
:10214000C00610D5BA6094F83520052A63D00B6814
:1021500013F4802F0B687ED0190340F18980E36B64
:102160000BB120469847636D23B3636DDA071AD528
:102170000523226884F835301368434923F00103AE
:10218000A1FB06161360B60A02E01368DB0704D54C
:10219000019B0133B3420193F7D90022012384F854
:1021A000342084F83530E36C23B1204603B0BDE819
:1021B000F040184703B0F0BD086820F00400086044
:1021C000BA60626D42F0010262659BE7BA600A681C
:1021D00012F4802F0A6818D1D20503D40A6822F0BD
:1021E00008020A60226C002AA4D020469047E36DC2
:1021F000A0E7BA60626D42F00402626592E7BA60DD
:10220000626D42F00202626584E71103EAD5A26CB6
:10221000002AEAD18EE70A68206C22F016020A60D2
:102220004A6922F080024A6138B30A6822F0080243
:102230000A603F22216D02FA03F300200122BB60F5
:1022400084F8340084F835200029B3D0204603B048
:10225000BDE8F040084713F4807380D10A6801207C
:1022600022F010020A6084F8343084F8350076E7F2
:10227000636C002B7FF475AF75E7A26C002AD4D194
:10228000D7E700BF30000020B5814E1B2DE9F04F8D
:10229000DFF814C2DFF81482D1F800E083B0002523
:1022A00003E00135102D00F094800123AB400EEACD
:1022B0000304A342F5D14E6826F0100ABAF1020FCA
:1022C00000F08A804FEA45090322D0F800B002FAF4
:1022D00009F2D24306F0030702EA0B0B07FA09F7EB
:1022E0000AF1FF3A47EA0B07BAF1010F076040F223
:1022F0009980C7688B683A4003FA09F31343C360B7
:10230000F300CED500230193D8F8443043F4804342
:10231000C8F84430D8F8443025F0030202F1804276
:1023200003F4804302F59C32019305F00307019BFF
:10233000D2F80890BF000F23BB4029EA030A544B90
:1023400098421ED003F5806398427ED0514B98424C
:1023500000F08280504B984200F085804F4B9842AD
:1023600000F088804E4B984200F08B804D4B984295
:102370000CBF4FF006094FF0070909FA07F74AEAC0
:10238000070AC2F808A0DCF80030E243F70354BFA4
:1023900013402343CCF80030DCF80430B70354BFBB
:1023A00013402343CCF80430DCF80830F70254BF64
:1023B00013402343CCF80830DCF80C30B60205F1AA
:1023C000010554BF13402343102DCCF80C307FF48B
:1023D0006CAF03B0BDE8F08F4FEAD50900EB890977
:1023E00005F00707D9F82020BF004FF00F0B0BFABC
:1023F00007FB22EA0B0A0A69BA4042EA0A02C9F854
:1024000020204FEA45090322D0F800A002FA09F281
:10241000D24306F0030702EA0A0A07FA09F747EA75
:102420000A070760876807EA020ACF6807FA09F710
:1024300047EA0A078760D0F804A0C6F300172AEA23
:102440000303AF401F43476053E74FF0010909FA08
:1024500007F74AEA070A94E74FF0020909FA07F773
:102460004AEA070A8DE74FF0030909FA07F74AEA33
:10247000070A86E74FF0040909FA07F74AEA070A4C
:102480007FE74FF0050909FA07F74AEA070A78E7F4
:102490000000024000080240000C02400010024010
:1024A0000014024000180240003C01400038024085
:1024B0000369194214BF01200020704702B90904C2
:1024C00081617047436959404161704730B583B0BD
:1024D000194B1A491A4C002201921A6C42F0805290
:1024E0001A641B6C03F0805301930123019A0B6063
:1024F000FEF7AEFD054605E0FEF7AAFD401BB0F570
:102500007A7F16D86368DA03F6D50E4B0C4C01229D
:102510001A60FEF79DFD054605E0FEF799FD401B9C
:10252000B0F57A7F05D863689B03F6D5002003B029
:1025300030BD032003B030BD0038024040000E42E1
:102540000070004044000E4260B1484A136803F036
:102550000F038B4208D2CBB21370136803F00F0342
:102560008B4201D00120704703682DE9F0419D079F
:1025700014D55C0704D53E4CA26842F4E052A26038
:102580001A0704D53A4CA26842F46042A260384C63
:102590008568A26822F0F0022A43A260DF070446A1
:1025A0000D4622D54268012A56D0931E012B304B8E
:1025B0001B6858D9990725D52D4EB36823F003031E
:1025C0001343B360FEF744FD41F28837804605E0CF
:1025D000FEF73EFDA0EB0800B84242D8B36862683F
:1025E00003F00C03B3EB820FF2D1204A136803F01F
:1025F0000F03AB4209D9EBB21370136803F00F035A
:10260000AB4202D00120BDE8F08123685A0706D50D
:102610001749E0688A6822F4E05202438A601B0787
:1026200011D400F073F8124B12499B68124AC3F39D
:102630000313CB5C20FA03F300201360FEF7C0FC09
:102640000020BDE8F0810A4A2169936823F46043C1
:1026500043EAC1039360E4E7054B1B689E03ABD4D8
:10266000D0E70320EDE79801A6D4CBE7003C024079
:10267000003802406885000830000020014B1868CF
:10268000704700BF30000020044B054A9B68054995
:10269000C3F382230868D35CD840704700380240F7
:1026A0007885000830000020044B054A9B680549E6
:1026B000C3F342330868D35CD84070470038024007
:1026C00078850008300000200E4B0F2202609A68C7
:1026D00002F0030242609A6802F0F00282609A6897
:1026E00002F4E052C2609B68DB0810B403F4E053CC
:1026F000054C036123685DF8044B03F00F030B6086
:10270000704700BF00380240003C0240204908B535
:102710008B6803F00C03082B06D00C2B1CD0042B69
:102720001C4808BF002008BD4A684B6813F48003AA
:102730002BD149681748C1F3881102F03F02A1FB71
:102740000001FEF769FA124B5B68C3F301430133E2
:102750005B00B0FBF3F008BD4A684B6813F48003DC
:1027600010D149680B48C1F3881102F03F02A1FB68
:102770000001FEF751FA064B5B68C3F30273B0FB2E
:10278000F3F008BD4B680020F5E74B680020DAE75E
:10279000003802400024F4002DE9F0410368DA0714
:1027A00082B0044636D5AE498A6802F00C02042A8B
:1027B00000F0D2808A6802F00C02082A00F0C8807B
:1027C000A7498A6802F00C020C2A00F004816368B1
:1027D000B3F5803F00F00481B3F5A02F00F06081D5
:1027E0009F4D2A6822F480322A602A6822F48022CF
:1027F0002A60002B40F0F980FEF72AFC064605E02F
:10280000FEF726FC801B642800F20D812B689903DB
:10281000F6D423689A072FD5914A916811F00C0FCE
:1028200000F0AB80916801F00C01082900F0A18054
:102830008B498A6802F00C020C2A00F02C81E368B4
:10284000002B00F01781874B854D01221A60FEF79F
:10285000FFFB064605E0FEF7FBFB801B022800F2AB
:10286000E2802B689807F6D52B68226923F0F803DD
:1028700043EAC2032B6023681A0715D56369002B4E
:1028800000F08D80784B764D01221A60FEF7E0FB58
:10289000064605E0FEF7DCFB801B022800F2C38041
:1028A0006B6F9B07F6D52368580731D56C4A136CBC
:1028B00013F0805300F0838000266C4D2A68D10508
:1028C00040F1A180A368012B00F0B180052B00F03E
:1028D000F780634D2A6F22F001022A672A6F22F0E7
:1028E00004022A67002B40F0A780FEF7B1FB41F2FB
:1028F0008837804606E0FEF7ABFBA0EB0800B84245
:1029000000F291802B6F9807F5D4002E40F0D28012
:10291000A269CAB1524DA96801F00C01082924D05E
:10292000022A534A4FF00001116000F0D380FEF7F5
:102930008FFB2C46054604E0FEF78AFB401B02286D
:1029400071D823689B01F7D4002002B0BDE8F08164
:102950004A6857027FF534AF414A126895037FF504
:1029600059AF6268002A7FF455AF012002B0BDE87C
:10297000F081526857023FF55BAF394A12689507FC
:1029800002D5E268012AF0D1354920690A6822F0AF
:10299000F80242EAC0020A601A0785D56EE7324A99
:1029A0002F4D1360FEF754FB064604E0FEF750FB84
:1029B000801B022837D86B6F9F07F7D473E701930A
:1029C000136C43F080531364136C03F08053019332
:1029D000019B012671E74A6856027FF5F8AEBBE716
:1029E0001F4A136843F480331360FEF731FB1C4D1C
:1029F000064604E0FEF72CFB801B642813D82B68E6
:102A00009803F7D505E72A6842F480722A60FEF73A
:102A10001FFB07462B68DA053FF554AFFEF718FB9E
:102A2000C01B0228F6D9032002B0BDE8F0810C4A91
:102A3000136F43F001031367FEF70AFB084D80464E
:102A400041F2883705E0FEF703FBA0EB0800B8422F
:102A5000E9D82B6F9B07F6D5002E3FF459AF29E03C
:102A60000038024000004742800E4742007000409C
:102A7000600047422F4A304D1360FEF7E9FA0646E0
:102A800004E0FEF7E5FA801B0228CCD82B689907F2
:102A9000F7D42368F0E64A6856023FF5D0AE6CE7FB
:102AA000254B1A6842F480221A601A6842F4803278
:102AB0001A609AE7204A136C23F08053136427E7C7
:102AC0001D4B1A6F42F004021A671A6F42F001029E
:102AD0001A67B1E7FEF7BCFA064604E0FEF7B8FA5B
:102AE000801B02289FD82B689901F7D4D4E90732BC
:102AF000666AE06A216B1343A26A0F4C43EA8613AD
:102B000043EA0063520843EA0173013A0B4943EA7E
:102B1000024301226B600A60FEF79AFA054605E05F
:102B2000FEF796FA401B02283FF67DAF23689A0114
:102B3000F6D509E7000047420038024060004742EE
:102B40002DE9F04180460F4616461D46D8F8004054
:102B500001E06B1C0AD1A06837EA00030CBF01201A
:102B600000208642F5D10020BDE8F0813DB1FEF79E
:102B70006FFA069BC01AA842E8D3D8F800406368F1
:102B8000D8F8042023F0E003B2F5827F636015D00B
:102B9000D8F82830B3F5005F08D123684DF6FF72EE
:102BA00013402360236843F4005323600122002371
:102BB00088F8512088F850300320D5E7D8F808303D
:102BC000B3F5004F02D0B3F5806FE1D1236823F055
:102BD00040032360DCE700BF2DE9F043044685B0E5
:102BE000012084F85000164699460F460C9DFEF7CA
:102BF0002FFA94F851306268DBB2012B804611D075
:102C0000B2F5827F09D002200122002384F85120EE
:102C100084F8503005B0BDE8F083A1680029F2D1F6
:102C2000042BF0D1002F60D0002E5ED0B9F1000F40
:102C30005BD094F851302168012B04BF052384F840
:102C4000513000236365A4F83E90A4F836900868DC
:102C5000A6634006A4F83C902763A4F83490C4E926
:102C6000103344D5E368B3F5006F45D0002A71D125
:102C700017F8013B0B73E38E013B9BB2E3864FF0E9
:102C80000109E38E9BB21BB9E38F9BB2002B41D0AD
:102C9000B9F1000F0FD0E38E9BB263B123689A683D
:102CA000910708D53A781A73E38E013B9BB201373E
:102CB000E3864FF00009E38F9BB263B123689A6803
:102CC000D20708D5DB683370E38F013B9BB2013636
:102CD000E3874FF001096B1CD3D0FEF7B9F9A0EBE5
:102CE00008008542CDD803208EE701208CE70B68D1
:102CF00043F040030B60B5E7002A5CD0E38E9BB243
:102D0000012B58D04FF00109E38E9BB23BBBE38F00
:102D10009BB223BBCDF800802B4601220221204626
:102D2000FFF70EFF0028DED10246CDF800802B46CB
:102D300080212046FFF704FF002844D1A368002B20
:102D40007FF462AF23680390DA6803929B68039371
:102D5000039B59E7E38E9BB2012B90D188E7B9F131
:102D6000000F0FD0E38E9BB263B123689A6891077E
:102D700008D537F8022BDA60E38E013B9BB2E3867D
:102D80004FF00009E38F9BB263B123689A68D207C2
:102D900008D5DB6826F8023BE38F013B9BB2E38753
:102DA0004FF00109681CAFD0FEF752F9A0EB080004
:102DB0008542A9D897E737F8023BCB60E38E013B09
:102DC0009BB2E3869EE7636D202213436365012077
:102DD000626519E700283BD090F85120002370B5B8
:102DE00002F0FF010446836262B31846D4E901355C
:102DF000D4E903212B4313436269E569266A0B4337
:102E00001343A26921682B43022584F851503343B0
:102E100002F400750E682B43120C656A02F004027E
:102E200003432A4326F040060E600B604A60CB69DC
:102E3000002223F400630125CB611046626584F80B
:102E4000515070BD80F8501003F0CAF9A06ACDE768
:102E5000012070472DE9F0410D4690F850100129EE
:102E600084B056D01E46012380F850300446904668
:102E7000FEF7EEF8074694F85100C0B2012809D0D9
:102E800002200122002384F8512084F8503004B03D
:102E9000BDE8F081002DF4D0B8F1000FF1D0A268A8
:102EA0002563032384F85130B2F5004F4FF000033F
:102EB0006365A363A387C4E91033A4F83680A4F83C
:102EC0003480E387236803D11A6842F480421A6091
:102ED0001A68520621D5E2686168B2F5006F46D0E3
:102EE00001BB15F8012B1A73E38E013B9BB2E386FD
:102EF000E38E9BB2DBB123689A689207F1D436B1B6
:102F0000731CF5D0FEF7A4F8C01BB042F0D3032029
:102F1000B7E7022004B0BDE8F0811A6842F0400231
:102F20001A60D8E7E28E92B2012AE1D1D9E7009780
:102F30003346012202212046FFF702FE0028E6D197
:102F400002460097334680212046FFF7F9FD00280E
:102F50002CD1A36833B922680393D3680393936891
:102F60000393039B606D003018BF012089E7A9B16E
:102F7000E28E92B2012A11D0E38E9BB2002BD6D002
:102F800023689A68900709D4002EC0D0711CF3D032
:102F9000FEF75EF8C01BB042EED3B8E735F8022B5F
:102FA000DA60E38E013B9BB2E386E5E7636D2022A6
:102FB000134363650120626563E700BF2DE9F041BB
:102FC0001E46436890F85070B3F5827F82B0044685
:102FD00090460D4616D0012F24D0012384F850309E
:102FE000FEF736F8074694F85100C0B201281DD00C
:102FF00002200122002384F8512084F8503002B0CE
:10300000BDE8F0818368002BE5D10423012F80F80F
:10301000513007D0134600960A46FFF7DDFD02B097
:10302000BDE8F081022002B0BDE8F081002DE0D0C3
:10303000B8F1000FDDD0A268A563042384F85130F5
:10304000B2F5004F4FF0000363652363A386C4E924
:103050001033A4F83E80A4F83C80E386236849D06E
:103060001A68520603D41A6842F040021A60E368F4
:1030700013BBE38F9BB273B123689A68D0072FD537
:103080001B7B05F8013BE38F013B9BB2E387E38F9A
:103090009BB2002BF0D16368B3F5827F2FD0606DB7
:1030A000003018BF0120A4E716B3731C04D0FDF74D
:1030B000CFFFC01BB0421BD2E38F9BB2002BEAD0E4
:1030C00023689A68D207EFD5DB6825F8023BE38FC7
:1030D000013B9BB2E387E38F9BB2002BF0D1DAE791
:1030E00036B1711CC5D0FDF7B3FFC01BB042C0D3D1
:1030F00003207EE71A6822F480421A60B0E7A368D2
:10310000B3F5004F02D0B3F5806FC8D122681368C1
:1031100023F040031360C2E710B490F85040012C34
:1031200003D05DF8044BFFF757BD02205DF8044B58
:10313000704700BF704700BF026830B5556891689E
:1031400001F04104012C85B003465DD0880707D506
:103150002C0605D55A6C184605B0BDE8304010471E
:1031600011F4B07F4ED0A8064CD54C060ED593F87E
:10317000510003284FD0586D002440F004005865DA
:103180000094D068009090680090009888060CD554
:10319000586D002440F00100586502949068029038
:1031A000106820F0400010600298C90508D5596DDC
:1031B000002041F00801596503909168039103993B
:1031C000596DF9B11C46536823F0E00353600121A7
:1031D000AB0784F8511012D05368E06C23F003035E
:1031E000536018B1104B0365FEF768FFA06C48B13F
:1031F0000D4B036505B0BDE83040FEF75FBF2046CC
:10320000FFF798FF05B030BD6C069FD5036C05B085
:10321000BDE83040184700230193D36801939368B9
:103220000193019BEEE700BF2D32000808B5836BC8
:103230000022DA871846DA86FFF77CFF08BD00BF58
:1032400090F85100704700BFF0B4046AD1F808C08C
:103250000E68144D24F001040462036A4768826911
:1032600023F0020322F07302A84243EA0C0342EA6D
:10327000060209D00C4CA04206D049684760826122
:10328000F0BC416303627047D1E90554CE6823F076
:10329000080327F4407733432C4323F004032743E8
:1032A000EBE700BF0000014000040140F0B4046AF5
:1032B000D1F808C00E68154D24F480740462036AC6
:1032C0004768C26923F4007322F07302A84243EAFC
:1032D0000C2342EA060209D00D4CA04206D04968F0
:1032E0004760C261F0BCC16303627047D1E9055415
:1032F000CE6823F4006327F4405743EA06232C43A7
:1033000023F4806347EA0417E9E700BF00000140A7
:1033100000040140F0B4046A8F680E68104D24F474
:1033200080540462036A4468C26923F4005322F49F
:10333000E642A84243EA073342EA06220AD005F5EC
:103340008065A84206D049684460C261F0BC01644F
:10335000036270474D6924F4804444EA8514F2E71F
:10336000000001400168022210B480F839200A6888
:103370000124034622430A60002083F839405DF8A7
:10338000044B70470368DA6842F00102DA601A6899
:1033900042F001021A600020704700BF036801225A
:1033A000186A02FA01F120EA010010B418621A6AE0
:1033B0000A4C1143A34219620AD0094A934207D02A
:1033C0001A685DF8044B42F0010200201A60704751
:1033D0005A6C42F400425A64F2E700BF0000014018
:1033E00000040140FFF7DABF90F83830012B67D0B6
:1033F00002220368F0B480F839209A680C6822F43D
:103400007F4222F077020125402C80F838509A60E4
:1034100000F0938018D9702C7FD02BD9B4F5805F41
:1034200076D0B4F5005F1CD1D1E90152CC6899681F
:103430002A4342EA042221F47F410A439A609A68AF
:1034400042F480429A600CE0102C42D02FD9202CFC
:1034500038D0302C05D19A6822F0700242F0370241
:103460009A600023012280F8392080F83830F0BCBF
:1034700018467047502C33D0602CF2D11C6A4D682E
:10348000CE6824F010041C6299691A6A21F4704114
:1034900022F0A00242EA051241EA063199611A625D
:1034A0009A6822F0700242F067029A60D9E7002C15
:1034B000D7D19A6822F0700242F007029A60D0E7F2
:1034C000022070479A6822F0700242F027029A6048
:1034D000C7E79A6822F0700242F017029A60C0E7CC
:1034E0001D6A1E6A4C68CF6826F001061E629A6942
:1034F00025F00A0122F0F00242EA071221439A6104
:1035000019629A6822F0700242F057029A60A8E7A6
:103510009A6822F007029A60A3E7D1E90152CC68C9
:1035200099682A4342EA042221F47F410A439A60BF
:103530009A6842F077029A6093E71D6A1E6A4C68A7
:10354000CF6826F001061E629A6925F00A0122F072
:10355000F00242EA071221439A6119629A6822F046
:10356000700242F047029A607BE700BF704700BFDD
:10357000704700BF704700BF704700BF704700BF73
:1035800003681A69910710B5044602D5DA689207F4
:103590005FD41A69500702D5DA68510746D41A6910
:1035A000120702D5DA6810072ED41A69D20602D59E
:1035B000DA68D00618D41A69D10702D5DA68D207BA
:1035C0005DD41A69100602D5DA6811065FD41A694B
:1035D000520602D5DA68500661D41A69910602D5FE
:1035E000DA68920643D410BD6FF010021A61DB69ED
:1035F000082213F4407F2276204664D0FFF7BAFFFA
:10360000002223682276D6E76FF008021A61DB6990
:10361000042299072276204652D1FFF7A9FF2046BF
:10362000FFF7AAFF002223682276BEE76FF00402AC
:103630001A619B69022213F4407F227620463CD116
:10364000FFF796FF2046FFF797FF002223682276B8
:10365000A5E76FF002021A619B6901229B070276BF
:1036600025D0FFF787FF00222368227691E76FF0CD
:10367000200220461A61BDE8104000F0A5B96FF0A5
:1036800001021A612046FFF771FF236899E76FF086
:1036900080021A61204600F099F9236897E76FF0DD
:1036A00040021A612046FFF769FF236895E7FFF79C
:1036B0005FFF2046FFF760FFD5E7FFF75BFFC4E73A
:1036C000FFF758FFAEE7FFF753FF2046FFF754FF21
:1036D00096E700BF90F83900704700BF70B4314DD5
:1036E00003688C680A68A8424FD0B0F1804F29D097
:1036F000A5F57C45A84234D005F58065A84230D0B8
:1037000005F58065A8422CD005F57845A84228D05B
:1037100005F57055A84213D005F58065A8420FD075
:1037200005F58065A8420BD0A5F59835A84207D0CD
:1037300005F58065A84203D005F58065A84209D14A
:10374000C96804E04D68C96823F070032B4323F473
:1037500040730B430360C46282620123436170BC07
:1037600070474D68CE6823F070032B430E4D23F451
:1037700040733343A8420360C4628262EDD10B6997
:1037800003630123436170BC70474E68CD6823F02A
:103790007003334323F440732B430360C46282629B
:1037A000EDE700BF0000014000040140B8B190F80F
:1037B000393010B503F0FF0204465BB1022384F8F0
:1037C00039302068211DFFF789FF012384F8393043
:1037D000002010BD80F8382002F01EFFEEE7012027
:1037E000704700BFB8B190F8393010B503F0FF0250
:1037F00004465BB1022384F839302068211DFFF7AD
:103800006DFF012384F83930002010BD80F8382086
:1038100002F06EFFEEE70120704700BFF0B4046ACB
:10382000D1F808C00E68154D24F010040462036A34
:103830004768826923F0200322F4E642A84243EA63
:103840000C1342EA062209D00D4CA04206D049686A
:1038500047608261F0BC816303627047D1E905541F
:10386000CE6823F0800327F4406743EA06132C4315
:1038700023F0400347EA8407E9E700BF0000014066
:103880000004014038B590F83830012B74D00D4653
:1038900002230121044680F8381080F839300C2AC0
:1038A00019D8DFE802F00718181838181818511836
:1038B00018181F0029460068FFF7C6FC236828690E
:1038C000996941F008019961996921F004019961B0
:1038D0009A6902439A610123002084F8393084F800
:1038E000380038BD29460068FFF714FD23682869B1
:1038F000D96941F40061D961D96921F48061D96144
:10390000DA6942EA0022DA610020012384F83930C2
:1039100084F83800E5E729460068FFF77FFF236851
:103920002869996941F400619961996921F480617C
:1039300099619A6942EA00229A610020012384F881
:10394000393084F83800CCE729460068FFF7AEFC30
:1039500023682869D96941F00801D961D96921F042
:103960000401D961DA690243DA610020012384F895
:10397000393084F83800B4E7022038BD90F8383088
:10398000012B1ED002460220136870B482F8390061
:103990005C6824F07004D1E900565C6058682843E4
:1039A0005860986820F0800098609968002401258C
:1039B00031439960204682F8395082F8384070BC13
:1039C00070470220704700BF704700BF704700BFBC
:1039D000026811692DE9F843C568836821F44051F4
:1039E0000446294300691161D16865690343E069B0
:1039F00021F416412B4321F00C0103430B43D36008
:103A00005369A16923F440730B43B0F5004F536130
:103A10009B4B00F09A809A4259D003F580639A42FA
:103A200055D0FEF731FE974F636800EB800000EB46
:103A300080009B00B0FBF3F3A7FB03235B091D0190
:103A4000FEF722FE666800EB800000EB8000B60007
:103A5000B0FBF6F6FEF718FE636800EB800000EBA3
:103A600080009B00B0FBF3F3A7FB03235B094FF03F
:103A7000640909FB13631B013233A7FB03235B09B2
:103A800003F0F006FEF700FE626800EB800000EB3A
:103A900080009300B0FBF3F8FEF7F6FDD4E90023B5
:103AA00000EB80009B0000EB8000B0FBF3F0A7FB75
:103AB0000030400909FB10831B013233A7FB0313BD
:103AC000C3F3431333432B449360BDE8F883FEF7FD
:103AD000EBFD6C4F636800EB800000EB80009B0007
:103AE000B0FBF3F3A7FB03235B091D01FEF7DCFD2D
:103AF000666800EB800000EB8000B600B0FBF6F6D5
:103B0000FEF7D2FD636800EB800000EB80009B00B5
:103B1000B0FBF3F3A7FB03234FF064095B0909FB38
:103B200013631B013233A7FB03235B0903F0F00689
:103B3000FEF7BAFD626800EB8000930000EB8000A6
:103B4000B0FBF3F8FEF7B0FDA8E79A4259D003F5B1
:103B500080639A4255D0FEF797FD4A4F636800EBA9
:103B6000800000EB80005B00B0FBF3F3A7FB0323B6
:103B70005B091E01FEF788FD656800EB800000EB25
:103B800080006D00B0FBF5F5FEF77EFD636800EB8D
:103B9000800000EB80005B00B0FBF3F3A7FB032386
:103BA0005B094FF0640909FB1353DB003233A7FBB9
:103BB00003231B0903F4F875FEF766FD626800EB4A
:103BC000800000EB80005300B0FBF3F8FEF75CFDD3
:103BD000D4E9002300EB800000EB80005B00B0FB29
:103BE000F3F3A7FB03135B0909FB1383DB003233F9
:103BF000A7FB0313C3F3421333442B449360BDE884
:103C0000F883FEF751FD1F4F636800EB800000EB67
:103C100080005B00B0FBF3F3A7FB03235B091E01ED
:103C2000FEF742FD656800EB800000EB80006D0050
:103C3000B0FBF5F5FEF738FD636800EB800000EBA4
:103C400080005B00B0FBF3F3A7FB03234FF0640994
:103C50005B0909FB1353DB003233A7FB03231B096A
:103C600003F4F875FEF720FD626800EB8000530056
:103C700000EB8000B0FBF3F8FEF716FDA8E700BFED
:103C8000001001401F85EB512DE9F04107460E461B
:103C900090461D463C6801E06B1C06D1206836EA60
:103CA0000003F9D10020BDE8F08135B1FDF7D0F96E
:103CB000A0EB08008542EDD23C68E36823F4D073A2
:103CC000E3606369202223F0010300216361032084
:103CD00087F8392087F8381087F83A20E3E700BFE3
:103CE00060B338B590F83930044603F0FF0203B3EF
:103CF0002268242384F83930D36823F40053D36036
:103D00002046FFF765FE23681A6922F490421A6183
:103D10005A6922F02A025A61DA680025202142F409
:103D20000052DA602846E56384F8391084F83A10C6
:103D300038BD80F8382002F041FED9E701207047F5
:103D40002DE9F0430F4690F83910202983B02DD18A
:103D500087B3019272B3984690F83830012B04462D
:103D600024D00023C3630121212380F8381080F878
:103D70003930FDF76DF9019AA2848146E284E58C21
:103D8000ADB243464A468021204655B3E58CA6682D
:103D9000013DADB2B6F5805FE5840FD0FFF774FF4B
:103DA000E8B923683A785A600137E8E7022003B09F
:103DB000BDE8F083012003B0BDE8F08343464A46E6
:103DC00080212046FFF760FF48B93B8821682269BF
:103DD000C3F308034B60002AE6D10237CFE7032084
:103DE000E5E74021FFF750FF0028F8D1202384F8B1
:103DF000380084F83930DAE790F83930202B18D1C0
:103E0000C9B1C2B190F83830012B12D030B40023C0
:103E10000568C2842124C36380F83940EC680162DC
:103E200044F08004828480F838301846EC6030BC5E
:103E30007047022070470120704700BF90F83A3069
:103E4000202B1CD1E9B1E2B190F83830012B16D00B
:103E500030B400230468C2852225C36380F83A5039
:103E60006569828545F00105816280F838306561B9
:103E7000E26842F490721846E26030BC704702205B
:103E800070470120704700BF704700BF10B58468BD
:103E90000169836A0268B4F5805F1CD05C1C5268BB
:103EA0008462A9B91A70C38D013B9BB2C3856BB9FB
:103EB0000268D16821F49071D1605169202421F009
:103EC0000101516180F83A4001F02EFC002010BD44
:103ED00002F07F02E6E7526829B9C2F3080223F82C
:103EE000022B8362DFE7D2B223F8012B8362DAE789
:103EF000704700BF03681A6870B51607DD68596916
:103F000004464AD011F001011E464FD0D00705D516
:103F1000EB0503D5E36B43F00103E363500702F0C5
:103F2000020375D561B1E16B41F00201E16302F07A
:103F30000801002B71D119B1E36B43F00803E3636F
:103F4000E36B002B31D0900601D5A90671D47569B9
:103F5000E26B120702D415F0400577D0F36823F422
:103F60009073F3607369202223F00103736184F876
:103F70003A2073695B0658D57369606B23F0400380
:103F80007361002851D03A4B0365FEF797F860B192
:103F9000606BBDE87040036D1847910609D5AE0609
:103FA00007D590F83A30222B4CD070BD15F4907F95
:103FB000ACD116060ED45106F7D56A06F5D5DA68E7
:103FC000202122F04002DA60204684F83910FFF701
:103FD0005BFF70BD2806EED594F83920212AE4D184
:103FE000A168226AB1F5805F35D0511C2162127838
:103FF0005A60E28C013A92B2E284002AD5D1DA68A2
:1040000022F08002DA60DA6842F04002DA6070BDC5
:1040100043B1002994D002F00801E36B43F004039C
:10402000E36388E713078BD585E72046FFF760FF3A
:1040300070BD94F83A30222B89D12046FFF726FF35
:10404000266884E7BDE87040FFF720BF2046FFF7F1
:104050004FFFE56370BD11882069C1F30801596005
:1040600010B902322262C4E701322262C1E700BF06
:104070007540000808B5836B0022DA851846DA849B
:10408000FFF736FF08BD00BF70B59EB0FEF70CFB12
:10409000184E194B00930209A6FB02320024D209E4
:1040A00040F2E7356846CDE90124CDE90354FFF736
:1040B0007DFB6846FFF756F9104911480122FDF7CC
:1040C000FFF8FEF7E1FA0309A6FB0323DB090D4A1B
:1040D0000F920FA8CDE91034CDE91254FFF766FB1B
:1040E0000FA8FFF73FF9012207490848FDF7E8F854
:1040F0001EB070BDC55A7C0A000401402A01002090
:10410000CC040020000400403401002014050020ED
:10411000294B70B51868294D294E2A4CFCF7BAF97D
:104120001DA3D3E90023FCF72FFA1DA3D3E9002335
:10413000FCF754FB1CA3D3E90023FCF74FFB1CA3A3
:10414000D3E90023FCF720FA00221F4BFCF746FBC3
:10415000FCF712FD07EE900A2B782268FCEEE77A56
:10416000092BC6ED007A0DD91046FCF793F9174BD1
:104170000022FCF733FBFCF7DFFC0023B0802B7040
:10418000236070BD17EE900A013310442B7020603D
:1041900070BD00BFAFF300806666666666660A4063
:1041A000E17A14AE476110403D0AD7A370ED6E402E
:1041B000000000000058AB4034010020280100201E
:1041C000B8000020240100200000244000408F405F
:1041D0000D4B10B518880D4CFCF76CF908A3D3E90A
:1041E0000023FCF7D1F9FCF7C7FCFCF775F90022B6
:1041F000074BFCF7C9F9FCF79FFCE08010BD00BF3E
:104200007AEF86310E0C6D3F2A010020B8000020A5
:1042100000005940014BD888704700BFB80000200B
:10422000014B1888704700BFB80000200A220249DD
:104230000248FFF703BE00BF2C020020A0090020A7
:1042400070B5264D2A78012A0FD125490B7803F045
:10425000EF00052801D0D52B2CD109222149224875
:10426000FFF7ECFD0A232B7070BD1D4C1F4ED4F8D8
:10427000063033601E48002321460222E38023815A
:10428000FDF720FE33681B4E9842306017D0214660
:1042900001221548FFF7D2FDC823314604221248F7
:1042A000FFF74EFD0A22291D0F48FFF7A5FD012348
:1042B0002B7070BD0C48BDE87040FFF7BFBD0E4DC0
:1042C000227863782A7008486B700A222146FFF72B
:1042D000B5FD0A4A012313706B8070BD08000020F1
:1042E0002C0200202D020020A0090020C001002087
:1042F000E405002098010020C00000209401002067
:10430000034B187810B100221A700120704700BFCB
:104310009401002000B585B000238DF804008DF8CD
:104320000510CDF8062001A902220948ADF80A308F
:10433000ADF80C30FDF7C6FD01A9CDF80A00C82381
:104340000A220448FFF7FCFC05B05DF804FB00BF3F
:10435000E4050020A009002010B5384A1378152B79
:104360006ED0052B00D010BD53783A3B302BFAD8D5
:1043700001A252F823F000BF594800086F48000816
:104380008548000867430008674300086743000842
:104390006743000867430008674300086743000855
:1043A0006743000867430008674300089748000810
:1043B0006743000867430008674300086743000835
:1043C0006743000867430008674300086743000825
:1043D0006743000867430008674300086743000815
:1043E0006743000867430008674300086743000805
:1043F00067430008674300086743000867430008F5
:1044000067430008674300086743000867430008E4
:1044100067430008674300086743000867430008D4
:1044200067430008674300086743000867430008C4
:10443000AD480008BD48000845480008C0000020FD
:104440005378FD2B8FD801A252F823F0EF490008D2
:10445000134A00081B4A00083D4A00086743000849
:104460006743000867430008674300086743000884
:104470006743000867430008674300086743000874
:104480006743000867430008674300086743000864
:1044900067430008674300086B4A0008854A000824
:1044A0009F4A0008B94A00086743000867430008AC
:1044B00067430008CF4A0008E94A0008034B000898
:1044C000154B00086743000867430008674300086E
:1044D0006743000867430008674300086743000814
:1044E000274B0008314B000867430008674300086A
:1044F000674300083B4B0008674300086743000818
:1045000067430008674300086743000867430008E3
:1045100067430008674300086743000867430008D3
:1045200067430008674300086743000867430008C3
:1045300067430008674300086743000867430008B3
:1045400067430008674300084D4B000867430008B5
:1045500067430008E9480008054900086743000868
:104560002F490008554900086743000867430008C1
:104570006743000867430008674300086743000873
:104580006743000867430008674300086743000863
:104590006743000867430008674300086743000853
:1045A00067430008674300086F4900086743000835
:1045B0006743000867430008674300086743000833
:1045C0006743000867430008674300086743000823
:1045D0006743000867430008674300086743000813
:1045E0006743000867430008674300086743000803
:1045F00067430008674300086743000867430008F3
:1046000067430008674300086743000897490008AC
:1046100067430008674300086743000867430008D2
:1046200067430008674300086743000867430008C2
:1046300067430008674300086743000867430008B2
:1046400067430008674300086743000867430008A2
:1048300067430008C3490008D9490008D148000867
:10484000DD480008C34800F0C9FB6A210246BDE804
:1048500010400520FFF75EBDFFF7BAFCFFF7DAFC5A
:104860003A210246BDE810400520FFF753BDFFF78F
:104870004FFC00F031FF3B210246BDE8104005200F
:10488000FFF748BD00F034FF3C210246BDE8104070
:104890000520FFF73FBDFFF73BFCFFF7C1FC4721B9
:1048A0000246BDE810400520FFF734BDAA4B682141
:1048B0001A680520BDE81040FFF72CBDA54800F0A0
:1048C000A9FB69210246BDE810400520FFF722BD83
:1048D00040F24D10BDE8104000F060BE4FF4A770EC
:1048E000BDE8104000F05ABE002208219B48FDF7A9
:1048F000E5FD002280219948FDF7E0FD984B00225C
:104900001A7010BD012280219448FDF7D7FD0020C8
:1049100000F0A0FD012000F09DFD022000F09AFDB6
:10492000002280218D48BDE81040FDF7C7BD082159
:1049300001228A48FDF7C2FD894B01221A70FCF75B
:1049400087FB884B187002224521D520BDE8104016
:10495000FFF7E0BC012208218048FDF7AFFD804B46
:1049600001221A70FCF774FB7E4B187010BD0022F8
:1049700008217A48FDF7A2FD002280217748FDF743
:104980009DFD774B00241C7002225721D520BDE8E5
:104990001040FFF7BFBC744A744BD2F802106D4848
:1049A000012289B21A7000F0F7F86A4800F0F6F8B0
:1049B0006F4B022218807021D520BDE81040FFF710
:1049C000A9BC40F24B1000F0E9FD0222FA21D520EB
:1049D000BDE81040FFF79EBC4FF4A67000F0DEFD6E
:1049E0000222FB21D520BDE81040FFF793BC002236
:1049F00040216048FDF762FD00F0C6FF0222002161
:104A0000D520FFF787FC5C495C4A00230B701370CC
:104A100010BD5B4B01221A7010BD5A48FEF7B2FC64
:104A200000F066FE00283FF49EAC00F055FE002822
:104A30003FF499AC544B01221A7010BD5148FEF757
:104A4000A1FC0124514B45481C7022462021FDF752
:104A500035FD4F4B1B78002B3FF485AC22460821D7
:104A60003E48BDE81040FDF729BD3F4BD3F802009A
:104A700080B200F099FF02221321D520BDE810403A
:104A8000FFF748BC384BD3F8020080B200F092FF29
:104A900002221421D520BDE81040FFF73BBC00F0F6
:104AA0007BFF02221521D520FFF734FC3349324A1F
:104AB00001230B70137010BD00F066FF0222162157
:104AC000D520FFF727FC2D4B00221A7010BD264B76
:104AD000D3F8020080B200F073FF02221A21D52021
:104AE000BDE81040FFF716BC1F4BD3F8020080B2A0
:104AF00000F06CFF02221B21D520BDE81040FFF71B
:104B000009BC00F071FF02221C21D520BDE8104035
:104B1000FFF700BC00F060FF02221D21D520BDE898
:104B20001040FFF7F7BBEB20BDE8104000F036BDAA
:104B3000EC20BDE8104000F031BD00F055FF02222E
:104B40002A21D520BDE81040FFF7E4BB114B01221C
:104B50001A7010BD00060020F0050020000402407D
:104B600038010020EC0000202C0200201001002061
:104B70002C00002000080240B00100204302002069
:104B8000020100202809002000010020010100206E
:104B9000FF0000202901002001877047B0F938008C
:104BA000704700BF30B585B004AD1E2305F8013D48
:104BB000002210210F48104CFDF780FCC823009301
:104BC0002A46294601232046FEF7A6FA2046FEF78C
:104BD00037FB0228FAD0012210210648FDF76EFCAF
:104BE0000320FCF73BFA9DF80F00FE3818BF0120A8
:104BF00005B030BD00000240FC0600202DE9F04168
:104C000082B00DF10808A02308F8053D204E214C84
:104C1000851E00F10E07002210213046FDF74EFCE4
:104C2000C823012241462046FEF714F92046FEF72C
:104C300007FB0328FAD0C823022201A92046FEF769
:104C4000BDF92046FEF7FCFA0428FAD02046FEF70C
:104C5000F7FA062817D0012210213046FDF72EFC66
:104C60009DF804109DF805209DF8033002EB012209
:104C700025F8022F0233BD428DF80330CBD100203E
:104C800002B0BDE8F081012002B0BDE8F08100BFB4
:104C900000000240FC06002070B582B002AD002288
:104CA00005F8052D1B4C102106461B48FDF706FC98
:104CB0002946C82301222046FEF7CCF82046FEF7FD
:104CC000BFFA0328FAD01348C823032201A90446D7
:104CD000FEF774F92046FEF7B3FA0428FAD0012251
:104CE00010210D48FDF7EAFB9DF805109DF80630F0
:104CF0009DF80420074803EB012303EB02433360D4
:104D0000FEF79EFAA0F10600B0FA80F0400902B06A
:104D100070BD00BFFC0600200000024038B5104CFA
:104D20000546002210210F48FDF7C8FB05F11101CF
:104D3000C82301222046FEF78DF82046FEF780FAB0
:104D40000328FAD0012210210648FDF7B7FB0448DA
:104D5000FEF776FAA0F10600B0FA80F0400938BDFF
:104D6000FC0600200000024038B5104C0546002229
:104D700010210F48FDF7A2FB05F11001C823012205
:104D80002046FEF767F82046FEF75AFA0328FAD0C5
:104D9000012210210648FDF791FB0448FEF750FA66
:104DA000A0F10600B0FA80F0400938BDFC060020F2
:104DB000000002404038182811D8DFE800F0111038
:104DC000151019101D100D101010101010101110CA
:104DD000151019101D100D00094B0A221A7070478A
:104DE000074B02221A707047054B03221A70704756
:104DF000034B04221A707047014B06221A70704749
:104E0000C4000020406970472DE9F04F384D6B78A1
:104E1000022B83B004465CD0042B0ED013B103B038
:104E2000BDE8F08FFFF77AFF607CFFF7C3FF6B7878
:104E300001336B7003B0BDE8F08F2030FFF72CFF1B
:104E4000236AB4F80AC0E2886688D4F81CA0B4F8D3
:104E50000880A3EB0C2C82FB0C23D00940EA4360B2
:104E6000D911330C019333040093DDE900231218A8
:104E7000A2FB0A6788FB0C894B41720DA6880AFBCE
:104E800003774FEA981A4AEA896A4FEAA91B4FEA60
:104E900046484FEAD639A6891AEB080042EAC722EB
:104EA0004BEB09017B15121A86FB0C6763EB0103C0
:104EB000F10D41EA4721D20B4FF0000E42EA434286
:104EC00001F5FA6185F801E0C4E9052103B0BDE808
:104ED000F08F1C30FFF7E0FE2046FFF745FF207CF7
:104EE000FFF768FF6B7801336B7003B0BDE8F08F9C
:104EF000C400002010B50446FFF754FE44F65802E3
:104F0000034B228263622046BDE81040FFF776BE65
:104F1000888A0100C36A4362704700BF406A7047D5
:104F2000D0B504464069FBF7C5FA0646606A0F46ED
:104F3000FBF7C0FA02460B4630463946FBF74EFCFB
:104F40009FED0B1B41EC100B01F0BEFD002053EC5C
:104F5000102B0B49FBF760F907A3D3E90023FBF7FC
:104F600013FBFBF7C1FDA062D0BD00BFAFF3008013
:104F70006C45D9CC955BC83F0000000040A5E540DA
:104F80000000F03F074A1378012B04D084BF03F1DF
:104F9000FF33137070475378002101335370117041
:104FA000704700BFC400002030B40B4B5C789A7887
:104FB00034B95D6844690132D2B22C449A705C60A5
:104FC000914206D100245A689C7092FBF1F15C601A
:104FD000C16230BC704700BFC4000020C06A704787
:104FE00030B40B4B5C781A7A34B9DD68846A0132CC
:104FF000D2B22C441A72DC60914206D10024DA68E5
:105000001C7292FBF1F1DC60016330BC704700BFA1
:10501000C4000020006B7047F8B5174C627894F814
:1050200020303AB9656A82690133DBB22A4484F8D8
:1050300020306262994200D0F8BD636A93FBF1F1BF
:1050400000274163054684F82070FCF701F80B4EF9
:1050500094F82810411A304600F076F96B6BF37122
:1050600019161A1431711B12304602217271B37174
:1050700000F070F96762F8BDC40000202C01002028
:1050800070B50E4D6B7803B170BD0646FBF7E0FFBF
:105090000B4C95F82810411A204600F055F9B36AD8
:1050A000E3711D161A141B12204625716271A3713B
:1050B0000121BDE8704000F04DB900BFC4000020E0
:1050C0002C010020F8B5174C627894F829303AB9D1
:1050D000E56A42690133DBB22A4484F82930E2628E
:1050E000994200D0F8BDE36A93FBF1F10027C16259
:1050F000054684F82970FBF7ABFF0B4E94F8281097
:10510000411A304600F020F9EB6AF37119161A14AF
:1051100031711B12304639467271B37100F01AF9C1
:10512000E762F8BDC40000202C01002010B5084C37
:10513000002220462021FDF7C1F9C820FBF78EFF91
:10514000204601222021BDE81040FDF7B7B900BF7D
:105150000008024070B582B002AC05230F4D04F880
:10516000013D0F4E284600224FF48051FDF7A6F96D
:1051700021463046C8230122FDF76CFE2146C82394
:1051800030460122FDF71AFF284601224FF48051D4
:10519000FDF794F99DF8070002B070BD00040240CD
:1051A0004406002010B582B002AC062304F8013D8D
:1051B00000224FF480510A48FDF780F92146012270
:1051C000C8230848FDF746FE01224FF480510448E9
:1051D000FDF774F9FFF7BEFFC307FBD402B010BDA3
:1051E0000004024044060020F0B583B012230E46AE
:1051F000174645028DF80730FFF7ACFF10F00104A9
:10520000FAD1FFF7CFFF22464FF480512048FDF737
:1052100055F90DF10701C82301221E48FDF71AFEBA
:105220004FEA156C0DF10701C823012219488DF8CA
:1052300007C0FDF70FFE4FEA154C0DF10701C8231B
:10524000012214488DF807C02D0AFDF703FE0DF169
:105250000701C82301220F488DF80750FDF7FAFD1A
:105260000DF10701C82301220A488DF80740FDF718
:10527000F1FD3A4631464FF4FA730648FDF7EAFD70
:1052800001224FF480510248FDF718F903B0F0BD38
:105290000004024044060020F0B583B013230E46FC
:1052A000174645028DF80730FFF754FF10F0010450
:1052B000FAD1FFF777FF22464FF480512048FDF7DF
:1052C000FDF80DF10701C82301221E48FDF7C2FDBC
:1052D0004FEA156C0DF10701C823012219488DF81A
:1052E00007C0FDF7B7FD4FEA154C0DF10701C823C4
:1052F000012214488DF807C02D0AFDF7ABFD0DF112
:105300000701C82301220F488DF80750FDF7A2FDC1
:105310000DF10701C82301220A488DF80740FDF767
:1053200099FD3A4631464FF4FA730648FDF746FEBA
:1053300001224FF480510248FDF7C0F803B0F0BDE0
:1053400000040240440600200A0C0B0AC17042709F
:105350008370704770B5264C264D23892A68F82B38
:105360000FD9254E6868B24200F1010337D04FF4DF
:10537000807222496B60FFF737FF2E600023238184
:1053800070BD5E1C2681D15423892A68591C218155
:105390004178D15423892A6881785E1C2681D154B2
:1053A00023892A68C1785E1C2681D15423892A6802
:1053B00001795E1C2681D15423892A6841795E1CBB
:1053C0002681D15423892A6881795E1C2681D15493
:1053D0002A682389C179581C2081D15470BD114697
:1053E0004FF480726B60FFF7FFFE044B2B60C5E744
:1053F000F4000020180000206C0300204C02002064
:1054000010B582B060238DF80730FFF7A3FE10F0CF
:105410000104FAD1FFF7C6FE22464FF480510B4833
:10542000FDF74CF801220DF10701C8230848FDF7EC
:1054300011FD01224FF480510448FDF73FF8FFF7BA
:1054400089FEC307FBD402B010BD00BF00040240B8
:10545000440600202DE9F04FDFF8B490294FDFF823
:10546000AC80C1B006464FF0100A4FF48072694616
:105470005046FFF711FF6C4640AD02E00834AC42E5
:1054800023D02378B342F9D1E179A27820796379E6
:1054900094F801B094F806E094F803C008441102AF
:1054A00000EB034301EB0B4203EB0E23624449463E
:1054B000384602F033FC083482B24FF4FA733946AE
:1054C0004046FEF73DFCAC42DBD19DF80030FF2B9F
:1054D0000AF1010A0BD09DF80730FF2B07D09DF889
:1054E0000830FF2B03D09DF83F30FF2BBDD14FF488
:1054F000FA730C2204490548FEF722FC41B0BDE8CE
:10550000F08F00BF4C03002088850008E0090020D0
:105510008085000810B5084C17212046FCF702FBD7
:1055200020464FF48061FCF7FDFA20464FF400411D
:10553000BDE81040FCF7F6BABC0500200C4B0D4846
:1055400010B5002201241946C3E90522C3E900224F
:10555000C3E902221A61C3E90744FCF743F900B921
:1055600010BD39210448BDE8104000F0E9BD00BF7E
:10557000D8010020BC0500209485000808B5FFF77D
:10558000DDFF0448FCF7B6F9FFF7C4FF024B002229
:105590001A6008BDBC0500203C02002070B50C4C10
:1055A00082B004260025606021460DEB06030DF154
:1055B00003020848A6602560C4E903552575FCF779
:1055C000C7F910B1284602B070BD019802B070BD95
:1055D00000020020BC05002000B5202183B0054852
:1055E000FCF770FF0448FCF7D9FB019003B05DF8AD
:1055F00004FB00BF00040240BC0500202D4B834289
:1056000000D0704710B52C4C2C4B22460021FCF7E3
:10561000F7F96368602B1ED040F24B12934222D000
:10562000B3F5A67F25D040F24D1293422BD0B3F5AF
:10563000A77F2FD040F29112934220D0D12B00D0DF
:1056400010BD1F4B01225A7000F052F848BB1D4B91
:1056500000221A7010BD08211B48FCF733FF1B4BBA
:1056600001221A7010BD20211748BDE81040FCF738
:1056700029BF80211448BDE81040FCF723BF144B1C
:1056800001221A7010BD0222FC21D520BDE8104075
:10569000FEF740BE0222FD21D520BDE81040FEF7F6
:1056A00039BE00F019F80028D1D00A4B01221A7037
:1056B000CDE700BFBC0500204801002018020020F3
:1056C000FE00002001010020000402403A020020F8
:1056D000B10100200001002008B54FF480510348BB
:1056E000FCF7E6FEC0F10100C0B208BD00080240B0
:1056F00008B54FF480610348FCF7DAFEC0F1010001
:10570000C0B208BD00080240012240210148FCF758
:10571000D5BE00BF00080240002240210148FCF72E
:10572000CDBE00BF00080240024B834200D070474C
:10573000FEF786BDA00900202D4B1A8870B52D4CB0
:10574000EAB1002222801A802B4D0123A370FFF7BB
:1057500019FC2B7813B1294B1B88D3B1284C237823
:1057600023B1284A1388E3B1013B1380264D2B78DF
:1057700023B1264B1C8804B3013C1C8070BD2388D8
:10578000B3F57A7F02D201332380DDE7FEF74EFDC9
:10579000DAE7FFF7B9FF1E4B1C88ECB1013C1C8017
:1057A000DCE7FFF7B1FF1A4B1E88CEB1164D013E64
:1057B0001E802B78002BDCD1E0E700F0EDF8154AD5
:1057C000154E164816492C7001231370154A337074
:1057D00003700B70147070BDFFF79EFF2C70BDE757
:1057E000094DFFF799FF012326702B70C1E700BF19
:1057F000C20000200401002002010020240000203B
:1058000000010020220000200901002026000020C5
:1058100020000020B00100204302002008010020E9
:1058200007010020FF00002010B50021044690B0C1
:105830000846FCF749FFE3683C4A934216D0A2F5BC
:105840008062934212D002F5904293420ED0A2F5AC
:10585000806293420AD0A2F58062934206D0FCF7A0
:1058600013FF00231B69012B06D106E0FCF71CFF88
:1058700000231B69012B00D040002D4BE2680192F0
:10588000A3FB00232188002201A89B09B3FBF1F3AD
:1058900040F2E73103920293CDE90412FDF71AFFBB
:1058A000012805D001A8FDF781FF01A8FDF75AFDE9
:1058B0002369013B032B2FD8DFE803F023180D02E7
:1058C00001A80C21FDF78EFDE368A2884033A36098
:1058D0001A6010B010BD01A80821FDF783FDE36830
:1058E000A2883C33A3601A6010B010BD01A8042147
:1058F000FDF778FDE368A2883833A3601A6010B022
:1059000010BD01A80021FDF76DFDE368A2883433C6
:10591000A3601A6010B010BD5621064800F010FCBC
:10592000A368A2881A6010B010BD00BF0004014037
:10593000D34D6210A48500080E4B0F4A0F4910B5D5
:105940001846D960012440F24D115A6019801C613B
:10595000FFF76AFF0A4B0B4A1C614FF080444FF47B
:10596000A571DC6018465A60BDE810401980FFF749
:105970005BBF00BF9C010020C201FA000004004090
:10598000C401002058022C01024B9A689B881360C6
:10599000704700BFC4010020024B9A68DB88136087
:1059A000704700BFC4010020014B9880704700BFC2
:1059B000C4010020014BD880704700BFC401002003
:1059C000014B9880704700BF9C010020014BD8809C
:1059D000704700BF9C010020024B9A689B881360AF
:1059E000704700BF9C010020024B9A68DB8813605F
:1059F000704700BF9C01002030B5184B184A1A6050
:105A00004FF44031002285B04FF080554FF0606474
:105A1000596018460121C3E90A459A601A619A61E2
:105A20001A62DA60D96119635961FBF729FB80B901
:105A30000B2401220723694608480293CDE900425E
:105A4000FBF7A0FD18B15621064800F079FB05B020
:105A500030BD4C21034800F073FBE9E7CC04002083
:105A600000200140B885000830B5184B184A1A606C
:105A70004FF44031002285B04FF080554FF0006464
:105A8000596018460121C3E90A459A601A619A6172
:105A90001A62DA60D96119635961FBF7F1FA80B9CA
:105AA0000A2401220723694608480293CDE90042EF
:105AB000FBF768FD18B17921064800F041FB05B0FD
:105AC00030BD6F21034800F03BFBE9E714050020DF
:105AD00000220140B885000870B53E4A0368934231
:105AE00088B0044604D03C4A93423ED008B070BD12
:105AF00000263A4B01965A6C394D3A4842F480726E
:105B00005A645B6C059603F48073019302220323AD
:105B10000199039203A90493FCF7B8FB324B2B6065
:105B20004FF480604FF400614FF400524FF48073E3
:105B3000286128466E60C5E90266C5E90866C5E9C0
:105B40000512EB61FCF7DEF918B1A021274800F03F
:105B5000F7FA0022A56311461220AC63FCF732F974
:105B60001220FCF765F908B070BD00261B4B0296A9
:105B70005A6C1F4D1B4842F480625A645B6C059658
:105B800003F480630293012203230299039203A981
:105B90000493FCF77BFB174A2A604FF080634FF4B5
:105BA00080604FF400614FF400526B6028614FF445
:105BB00080732846AE60EE60C5E90866C5E9051247
:105BC000EB61FCF79FF90028C3D0CA21074800F019
:105BD000B7FABEE700200140002201400038024031
:105BE0005C0500200008024070640240B88500088F
:105BF0006C0400202864024038B5104B104A1A602B
:105C0000092100224FF4A0254FF4A0045960184642
:105C10000121C3E90454C3E902221A765A769A761E
:105C2000DA7619775977FBF75BFD00B938BD452166
:105C30000448BDE8384000F083BA00BFBC0500202E
:105C400000640040C885000802681D4B9A4200D0DD
:105C5000704770B586B0002403F5EA3300941A6CDF
:105C6000184842F000721A641B6C039403F000732E
:105C70004FF4C0510093032209230191022501A989
:105C8000CDE90423009E0295FCF700FB2246214645
:105C90001320FCF797F81320FCF7CAF82246214698
:105CA0001420FCF78FF81420FCF7C2F82246214696
:105CB0001520FCF787F81520FCF7BAF806B070BD80
